{
  "_format": "hh-sol-artifact-1",
  "contractName": "MagaMarketplace",
  "sourceName": "contracts/MagaMarketplace.sol",
  "abi": [
    {
      "inputs": [],
      "stateMutability": "nonpayable",
      "type": "constructor"
    },
    {
      "inputs": [
        {
          "internalType": "address",
          "name": "sender",
          "type": "address"
        },
        {
          "internalType": "uint256",
          "name": "tokenId",
          "type": "uint256"
        },
        {
          "internalType": "address",
          "name": "owner",
          "type": "address"
        }
      ],
      "name": "ERC721IncorrectOwner",
      "type": "error"
    },
    {
      "inputs": [
        {
          "internalType": "address",
          "name": "operator",
          "type": "address"
        },
        {
          "internalType": "uint256",
          "name": "tokenId",
          "type": "uint256"
        }
      ],
      "name": "ERC721InsufficientApproval",
      "type": "error"
    },
    {
      "inputs": [
        {
          "internalType": "address",
          "name": "approver",
          "type": "address"
        }
      ],
      "name": "ERC721InvalidApprover",
      "type": "error"
    },
    {
      "inputs": [
        {
          "internalType": "address",
          "name": "operator",
          "type": "address"
        }
      ],
      "name": "ERC721InvalidOperator",
      "type": "error"
    },
    {
      "inputs": [
        {
          "internalType": "address",
          "name": "owner",
          "type": "address"
        }
      ],
      "name": "ERC721InvalidOwner",
      "type": "error"
    },
    {
      "inputs": [
        {
          "internalType": "address",
          "name": "receiver",
          "type": "address"
        }
      ],
      "name": "ERC721InvalidReceiver",
      "type": "error"
    },
    {
      "inputs": [
        {
          "internalType": "address",
          "name": "sender",
          "type": "address"
        }
      ],
      "name": "ERC721InvalidSender",
      "type": "error"
    },
    {
      "inputs": [
        {
          "internalType": "uint256",
          "name": "tokenId",
          "type": "uint256"
        }
      ],
      "name": "ERC721NonexistentToken",
      "type": "error"
    },
    {
      "inputs": [
        {
          "internalType": "address",
          "name": "owner",
          "type": "address"
        }
      ],
      "name": "OwnableInvalidOwner",
      "type": "error"
    },
    {
      "inputs": [
        {
          "internalType": "address",
          "name": "account",
          "type": "address"
        }
      ],
      "name": "OwnableUnauthorizedAccount",
      "type": "error"
    },
    {
      "anonymous": false,
      "inputs": [
        {
          "indexed": true,
          "internalType": "address",
          "name": "owner",
          "type": "address"
        },
        {
          "indexed": true,
          "internalType": "address",
          "name": "approved",
          "type": "address"
        },
        {
          "indexed": true,
          "internalType": "uint256",
          "name": "tokenId",
          "type": "uint256"
        }
      ],
      "name": "Approval",
      "type": "event"
    },
    {
      "anonymous": false,
      "inputs": [
        {
          "indexed": true,
          "internalType": "address",
          "name": "owner",
          "type": "address"
        },
        {
          "indexed": true,
          "internalType": "address",
          "name": "operator",
          "type": "address"
        },
        {
          "indexed": false,
          "internalType": "bool",
          "name": "approved",
          "type": "bool"
        }
      ],
      "name": "ApprovalForAll",
      "type": "event"
    },
    {
      "anonymous": false,
      "inputs": [
        {
          "indexed": false,
          "internalType": "uint256",
          "name": "_fromTokenId",
          "type": "uint256"
        },
        {
          "indexed": false,
          "internalType": "uint256",
          "name": "_toTokenId",
          "type": "uint256"
        }
      ],
      "name": "BatchMetadataUpdate",
      "type": "event"
    },
    {
      "anonymous": false,
      "inputs": [
        {
          "indexed": true,
          "internalType": "uint256",
          "name": "tokenId",
          "type": "uint256"
        },
        {
          "indexed": false,
          "internalType": "address",
          "name": "buyer",
          "type": "address"
        },
        {
          "indexed": false,
          "internalType": "uint256",
          "name": "price",
          "type": "uint256"
        }
      ],
      "name": "Bought",
      "type": "event"
    },
    {
      "anonymous": false,
      "inputs": [
        {
          "indexed": true,
          "internalType": "uint256",
          "name": "tokenId",
          "type": "uint256"
        },
        {
          "indexed": false,
          "internalType": "uint256",
          "name": "price",
          "type": "uint256"
        }
      ],
      "name": "Listed",
      "type": "event"
    },
    {
      "anonymous": false,
      "inputs": [
        {
          "indexed": true,
          "internalType": "uint256",
          "name": "tokenId",
          "type": "uint256"
        }
      ],
      "name": "ListingCancelled",
      "type": "event"
    },
    {
      "anonymous": false,
      "inputs": [
        {
          "indexed": false,
          "internalType": "uint256",
          "name": "_tokenId",
          "type": "uint256"
        }
      ],
      "name": "MetadataUpdate",
      "type": "event"
    },
    {
      "anonymous": false,
      "inputs": [
        {
          "indexed": true,
          "internalType": "address",
          "name": "previousOwner",
          "type": "address"
        },
        {
          "indexed": true,
          "internalType": "address",
          "name": "newOwner",
          "type": "address"
        }
      ],
      "name": "OwnershipTransferred",
      "type": "event"
    },
    {
      "anonymous": false,
      "inputs": [
        {
          "indexed": true,
          "internalType": "address",
          "name": "from",
          "type": "address"
        },
        {
          "indexed": true,
          "internalType": "address",
          "name": "to",
          "type": "address"
        },
        {
          "indexed": true,
          "internalType": "uint256",
          "name": "tokenId",
          "type": "uint256"
        }
      ],
      "name": "Transfer",
      "type": "event"
    },
    {
      "inputs": [
        {
          "internalType": "address",
          "name": "to",
          "type": "address"
        },
        {
          "internalType": "uint256",
          "name": "tokenId",
          "type": "uint256"
        }
      ],
      "name": "approve",
      "outputs": [],
      "stateMutability": "nonpayable",
      "type": "function"
    },
    {
      "inputs": [
        {
          "internalType": "address",
          "name": "owner",
          "type": "address"
        }
      ],
      "name": "balanceOf",
      "outputs": [
        {
          "internalType": "uint256",
          "name": "",
          "type": "uint256"
        }
      ],
      "stateMutability": "view",
      "type": "function"
    },
    {
      "inputs": [
        {
          "internalType": "uint256",
          "name": "tokenId",
          "type": "uint256"
        }
      ],
      "name": "buy",
      "outputs": [],
      "stateMutability": "payable",
      "type": "function"
    },
    {
      "inputs": [
        {
          "internalType": "uint256",
          "name": "tokenId",
          "type": "uint256"
        }
      ],
      "name": "cancel",
      "outputs": [],
      "stateMutability": "nonpayable",
      "type": "function"
    },
    {
      "inputs": [
        {
          "internalType": "uint256",
          "name": "tokenId",
          "type": "uint256"
        }
      ],
      "name": "getApproved",
      "outputs": [
        {
          "internalType": "address",
          "name": "",
          "type": "address"
        }
      ],
      "stateMutability": "view",
      "type": "function"
    },
    {
      "inputs": [
        {
          "internalType": "address",
          "name": "owner",
          "type": "address"
        },
        {
          "internalType": "address",
          "name": "operator",
          "type": "address"
        }
      ],
      "name": "isApprovedForAll",
      "outputs": [
        {
          "internalType": "bool",
          "name": "",
          "type": "bool"
        }
      ],
      "stateMutability": "view",
      "type": "function"
    },
    {
      "inputs": [
        {
          "internalType": "uint256",
          "name": "tokenId",
          "type": "uint256"
        },
        {
          "internalType": "uint256",
          "name": "price",
          "type": "uint256"
        }
      ],
      "name": "list",
      "outputs": [],
      "stateMutability": "nonpayable",
      "type": "function"
    },
    {
      "inputs": [
        {
          "internalType": "uint256",
          "name": "",
          "type": "uint256"
        }
      ],
      "name": "listings",
      "outputs": [
        {
          "internalType": "uint256",
          "name": "",
          "type": "uint256"
        }
      ],
      "stateMutability": "view",
      "type": "function"
    },
    {
      "inputs": [
        {
          "internalType": "string",
          "name": "tokenURI",
          "type": "string"
        }
      ],
      "name": "mint",
      "outputs": [
        {
          "internalType": "uint256",
          "name": "",
          "type": "uint256"
        }
      ],
      "stateMutability": "nonpayable",
      "type": "function"
    },
    {
      "inputs": [],
      "name": "name",
      "outputs": [
        {
          "internalType": "string",
          "name": "",
          "type": "string"
        }
      ],
      "stateMutability": "view",
      "type": "function"
    },
    {
      "inputs": [],
      "name": "owner",
      "outputs": [
        {
          "internalType": "address",
          "name": "",
          "type": "address"
        }
      ],
      "stateMutability": "view",
      "type": "function"
    },
    {
      "inputs": [
        {
          "internalType": "uint256",
          "name": "tokenId",
          "type": "uint256"
        }
      ],
      "name": "ownerOf",
      "outputs": [
        {
          "internalType": "address",
          "name": "",
          "type": "address"
        }
      ],
      "stateMutability": "view",
      "type": "function"
    },
    {
      "inputs": [],
      "name": "renounceOwnership",
      "outputs": [],
      "stateMutability": "nonpayable",
      "type": "function"
    },
    {
      "inputs": [
        {
          "internalType": "address",
          "name": "from",
          "type": "address"
        },
        {
          "internalType": "address",
          "name": "to",
          "type": "address"
        },
        {
          "internalType": "uint256",
          "name": "tokenId",
          "type": "uint256"
        }
      ],
      "name": "safeTransferFrom",
      "outputs": [],
      "stateMutability": "nonpayable",
      "type": "function"
    },
    {
      "inputs": [
        {
          "internalType": "address",
          "name": "from",
          "type": "address"
        },
        {
          "internalType": "address",
          "name": "to",
          "type": "address"
        },
        {
          "internalType": "uint256",
          "name": "tokenId",
          "type": "uint256"
        },
        {
          "internalType": "bytes",
          "name": "data",
          "type": "bytes"
        }
      ],
      "name": "safeTransferFrom",
      "outputs": [],
      "stateMutability": "nonpayable",
      "type": "function"
    },
    {
      "inputs": [
        {
          "internalType": "address",
          "name": "operator",
          "type": "address"
        },
        {
          "internalType": "bool",
          "name": "approved",
          "type": "bool"
        }
      ],
      "name": "setApprovalForAll",
      "outputs": [],
      "stateMutability": "nonpayable",
      "type": "function"
    },
    {
      "inputs": [
        {
          "internalType": "bytes4",
          "name": "interfaceId",
          "type": "bytes4"
        }
      ],
      "name": "supportsInterface",
      "outputs": [
        {
          "internalType": "bool",
          "name": "",
          "type": "bool"
        }
      ],
      "stateMutability": "view",
      "type": "function"
    },
    {
      "inputs": [],
      "name": "symbol",
      "outputs": [
        {
          "internalType": "string",
          "name": "",
          "type": "string"
        }
      ],
      "stateMutability": "view",
      "type": "function"
    },
    {
      "inputs": [
        {
          "internalType": "uint256",
          "name": "tokenId",
          "type": "uint256"
        }
      ],
      "name": "tokenURI",
      "outputs": [
        {
          "internalType": "string",
          "name": "",
          "type": "string"
        }
      ],
      "stateMutability": "view",
      "type": "function"
    },
    {
      "inputs": [],
      "name": "totalSupply",
      "outputs": [
        {
          "internalType": "uint256",
          "name": "",
          "type": "uint256"
        }
      ],
      "stateMutability": "view",
      "type": "function"
    },
    {
      "inputs": [
        {
          "internalType": "address",
          "name": "from",
          "type": "address"
        },
        {
          "internalType": "address",
          "name": "to",
          "type": "address"
        },
        {
          "internalType": "uint256",
          "name": "tokenId",
          "type": "uint256"
        }
      ],
      "name": "transferFrom",
      "outputs": [],
      "stateMutability": "nonpayable",
      "type": "function"
    },
    {
      "inputs": [
        {
          "internalType": "address",
          "name": "newOwner",
          "type": "address"
        }
      ],
      "name": "transferOwnership",
      "outputs": [],
      "stateMutability": "nonpayable",
      "type": "function"
    }
  ],
  "bytecode": "0x60806040523480156200001157600080fd5b50336040518060400160405280600781526020017f4d6167614e4654000000000000000000000000000000000000000000000000008152506040518060400160405280600781526020017f4d4147414e465400000000000000000000000000000000000000000000000000815250816000908162000090919062000472565b508060019081620000a2919062000472565b505050600073ffffffffffffffffffffffffffffffffffffffff168173ffffffffffffffffffffffffffffffffffffffff16036200011a5760006040517f1e4fbdf70000000000000000000000000000000000000000000000000000000081526004016200011191906200059e565b60405180910390fd5b6200012b816200013260201b60201c565b50620005bb565b6000600760009054906101000a900473ffffffffffffffffffffffffffffffffffffffff16905081600760006101000a81548173ffffffffffffffffffffffffffffffffffffffff021916908373ffffffffffffffffffffffffffffffffffffffff1602179055508173ffffffffffffffffffffffffffffffffffffffff168173ffffffffffffffffffffffffffffffffffffffff167f8be0079c531659141344cd1fd0a4f28419497f9722a3daafe3b4186f6b6457e060405160405180910390a35050565b600081519050919050565b7f4e487b7100000000000000000000000000000000000000000000000000000000600052604160045260246000fd5b7f4e487b7100000000000000000000000000000000000000000000000000000000600052602260045260246000fd5b600060028204905060018216806200027a57607f821691505b60208210810362000290576200028f62000232565b5b50919050565b60008190508160005260206000209050919050565b60006020601f8301049050919050565b600082821b905092915050565b600060088302620002fa7fffffffffffffffffffffffffffffffffffffffffffffffffffffffffffffffff82620002bb565b620003068683620002bb565b95508019841693508086168417925050509392505050565b6000819050919050565b6000819050919050565b6000620003536200034d62000347846200031e565b62000328565b6200031e565b9050919050565b6000819050919050565b6200036f8362000332565b620003876200037e826200035a565b848454620002c8565b825550505050565b600090565b6200039e6200038f565b620003ab81848462000364565b505050565b5b81811015620003d357620003c760008262000394565b600181019050620003b1565b5050565b601f8211156200042257620003ec8162000296565b620003f784620002ab565b8101602085101562000407578190505b6200041f6200041685620002ab565b830182620003b0565b50505b505050565b600082821c905092915050565b6000620004476000198460080262000427565b1980831691505092915050565b600062000462838362000434565b9150826002028217905092915050565b6200047d82620001f8565b67ffffffffffffffff81111562000499576200049862000203565b5b620004a5825462000261565b620004b2828285620003d7565b600060209050601f831160018114620004ea5760008415620004d5578287015190505b620004e1858262000454565b86555062000551565b601f198416620004fa8662000296565b60005b828110156200052457848901518255600182019150602085019450602081019050620004fd565b8683101562000544578489015162000540601f89168262000434565b8355505b6001600288020188555050505b505050505050565b600073ffffffffffffffffffffffffffffffffffffffff82169050919050565b6000620005868262000559565b9050919050565b620005988162000579565b82525050565b6000602082019050620005b560008301846200058d565b92915050565b612f8c80620005cb6000396000f3fe6080604052600436106101355760003560e01c8063715018a6116100ab578063c87b56dd1161006f578063c87b56dd14610410578063d85d3d271461044d578063d96a094a1461048a578063de74e57b146104a6578063e985e9c5146104e3578063f2fde38b1461052057610135565b8063715018a6146103515780638da5cb5b1461036857806395d89b4114610393578063a22cb465146103be578063b88d4fde146103e757610135565b806323b872dd116100fd57806323b872dd1461023357806340e58ee51461025c57806342842e0e1461028557806350fd7367146102ae5780636352211e146102d757806370a082311461031457610135565b806301ffc9a71461013a57806306fdde0314610177578063081812fc146101a2578063095ea7b3146101df57806318160ddd14610208575b600080fd5b34801561014657600080fd5b50610161600480360381019061015c9190612207565b610549565b60405161016e919061224f565b60405180910390f35b34801561018357600080fd5b5061018c6105aa565b60405161019991906122fa565b60405180910390f35b3480156101ae57600080fd5b506101c960048036038101906101c49190612352565b61063c565b6040516101d691906123c0565b60405180910390f35b3480156101eb57600080fd5b5061020660048036038101906102019190612407565b610658565b005b34801561021457600080fd5b5061021d61066e565b60405161022a9190612456565b60405180910390f35b34801561023f57600080fd5b5061025a60048036038101906102559190612471565b610678565b005b34801561026857600080fd5b50610283600480360381019061027e9190612352565b61077a565b005b34801561029157600080fd5b506102ac60048036038101906102a79190612471565b610899565b005b3480156102ba57600080fd5b506102d560048036038101906102d091906124c4565b6108b9565b005b3480156102e357600080fd5b506102fe60048036038101906102f99190612352565b6109d1565b60405161030b91906123c0565b60405180910390f35b34801561032057600080fd5b5061033b60048036038101906103369190612504565b6109e3565b6040516103489190612456565b60405180910390f35b34801561035d57600080fd5b50610366610a9d565b005b34801561037457600080fd5b5061037d610ab1565b60405161038a91906123c0565b60405180910390f35b34801561039f57600080fd5b506103a8610adb565b6040516103b591906122fa565b60405180910390f35b3480156103ca57600080fd5b506103e560048036038101906103e0919061255d565b610b6d565b005b3480156103f357600080fd5b5061040e600480360381019061040991906126d2565b610b83565b005b34801561041c57600080fd5b5061043760048036038101906104329190612352565b610ba8565b60405161044491906122fa565b60405180910390f35b34801561045957600080fd5b50610474600480360381019061046f91906127f6565b610cbb565b6040516104819190612456565b60405180910390f35b6104a4600480360381019061049f9190612352565b610cf4565b005b3480156104b257600080fd5b506104cd60048036038101906104c89190612352565b610e46565b6040516104da9190612456565b60405180910390f35b3480156104ef57600080fd5b5061050a6004803603810190610505919061283f565b610e5e565b604051610517919061224f565b60405180910390f35b34801561052c57600080fd5b5061054760048036038101906105429190612504565b610ef2565b005b6000634906490660e01b7bffffffffffffffffffffffffffffffffffffffffffffffffffffffff1916827bffffffffffffffffffffffffffffffffffffffffffffffffffffffff191614806105a357506105a282610f78565b5b9050919050565b6060600080546105b9906128ae565b80601f01602080910402602001604051908101604052809291908181526020018280546105e5906128ae565b80156106325780601f1061060757610100808354040283529160200191610632565b820191906000526020600020905b81548152906001019060200180831161061557829003601f168201915b5050505050905090565b60006106478261105a565b50610651826110e2565b9050919050565b61066a828261066561111f565b611127565b5050565b6000600854905090565b600073ffffffffffffffffffffffffffffffffffffffff168273ffffffffffffffffffffffffffffffffffffffff16036106ea5760006040517f64a0ae920000000000000000000000000000000000000000000000000000000081526004016106e191906123c0565b60405180910390fd5b60006106fe83836106f961111f565b611139565b90508373ffffffffffffffffffffffffffffffffffffffff168173ffffffffffffffffffffffffffffffffffffffff1614610774578382826040517f64283d7b00000000000000000000000000000000000000000000000000000000815260040161076b939291906128df565b60405180910390fd5b50505050565b3373ffffffffffffffffffffffffffffffffffffffff1661079a826109d1565b73ffffffffffffffffffffffffffffffffffffffff16146107f0576040517f08c379a00000000000000000000000000000000000000000000000000000000081526004016107e790612962565b60405180910390fd5b6000600960008381526020019081526020016000205411610846576040517f08c379a000000000000000000000000000000000000000000000000000000000815260040161083d906129ce565b60405180910390fd5b600960008281526020019081526020016000206000905561086960008233611127565b807f411aee90354c51b1b04cd563fcab2617142a9d50da19232d888547c8a1b7fd8a60405160405180910390a250565b6108b483838360405180602001604052806000815250610b83565b505050565b3373ffffffffffffffffffffffffffffffffffffffff166108d9836109d1565b73ffffffffffffffffffffffffffffffffffffffff161461092f576040517f08c379a000000000000000000000000000000000000000000000000000000000815260040161092690612962565b60405180910390fd5b60008111610972576040517f08c379a000000000000000000000000000000000000000000000000000000000815260040161096990612a3a565b60405180910390fd5b806009600084815260200190815260200160002081905550610995308333611127565b817f1ea45e30b31292f9d7c5d37d275b2feca555f13f47dce0fdea2f47e8852ecd78826040516109c59190612456565b60405180910390a25050565b60006109dc8261105a565b9050919050565b60008073ffffffffffffffffffffffffffffffffffffffff168273ffffffffffffffffffffffffffffffffffffffff1603610a565760006040517f89c62b64000000000000000000000000000000000000000000000000000000008152600401610a4d91906123c0565b60405180910390fd5b600360008373ffffffffffffffffffffffffffffffffffffffff1673ffffffffffffffffffffffffffffffffffffffff168152602001908152602001600020549050919050565b610aa5611353565b610aaf60006113da565b565b6000600760009054906101000a900473ffffffffffffffffffffffffffffffffffffffff16905090565b606060018054610aea906128ae565b80601f0160208091040260200160405190810160405280929190818152602001828054610b16906128ae565b8015610b635780601f10610b3857610100808354040283529160200191610b63565b820191906000526020600020905b815481529060010190602001808311610b4657829003601f168201915b5050505050905090565b610b7f610b7861111f565b83836114a0565b5050565b610b8e848484610678565b610ba2610b9961111f565b8585858561160f565b50505050565b6060610bb38261105a565b506000600660008481526020019081526020016000208054610bd4906128ae565b80601f0160208091040260200160405190810160405280929190818152602001828054610c00906128ae565b8015610c4d5780601f10610c2257610100808354040283529160200191610c4d565b820191906000526020600020905b815481529060010190602001808311610c3057829003601f168201915b505050505090506000610c5e6117c0565b90506000815103610c73578192505050610cb6565b600082511115610ca8578082604051602001610c90929190612a96565b60405160208183030381529060405292505050610cb6565b610cb1846117d7565b925050505b919050565b60008060086000815480929190610cd190612ae9565b919050559050610ce13382611840565b610ceb818461185e565b80915050919050565b60006009600083815260200190815260200160002054905060008111610d4f576040517f08c379a0000000000000000000000000000000000000000000000000000000008152600401610d46906129ce565b60405180910390fd5b803414610d91576040517f08c379a0000000000000000000000000000000000000000000000000000000008152600401610d8890612b7d565b60405180910390fd5b6000610d9c836109d1565b90506009600084815260200190815260200160002060009055610dc08133856118ba565b8073ffffffffffffffffffffffffffffffffffffffff166108fc839081150290604051600060405180830381858888f19350505050158015610e06573d6000803e3d6000fd5b50827fd2728f908c7e0feb83c6278798370fcb86b62f236c9dbf1a3f541096c21590403384604051610e39929190612b9d565b60405180910390a2505050565b60096020528060005260406000206000915090505481565b6000600560008473ffffffffffffffffffffffffffffffffffffffff1673ffffffffffffffffffffffffffffffffffffffff16815260200190815260200160002060008373ffffffffffffffffffffffffffffffffffffffff1673ffffffffffffffffffffffffffffffffffffffff16815260200190815260200160002060009054906101000a900460ff16905092915050565b610efa611353565b600073ffffffffffffffffffffffffffffffffffffffff168173ffffffffffffffffffffffffffffffffffffffff1603610f6c5760006040517f1e4fbdf7000000000000000000000000000000000000000000000000000000008152600401610f6391906123c0565b60405180910390fd5b610f75816113da565b50565b60007f80ac58cd000000000000000000000000000000000000000000000000000000007bffffffffffffffffffffffffffffffffffffffffffffffffffffffff1916827bffffffffffffffffffffffffffffffffffffffffffffffffffffffff1916148061104357507f5b5e139f000000000000000000000000000000000000000000000000000000007bffffffffffffffffffffffffffffffffffffffffffffffffffffffff1916827bffffffffffffffffffffffffffffffffffffffffffffffffffffffff1916145b806110535750611052826118da565b5b9050919050565b60008061106683611944565b9050600073ffffffffffffffffffffffffffffffffffffffff168173ffffffffffffffffffffffffffffffffffffffff16036110d957826040517f7e2732890000000000000000000000000000000000000000000000000000000081526004016110d09190612456565b60405180910390fd5b80915050919050565b60006004600083815260200190815260200160002060009054906101000a900473ffffffffffffffffffffffffffffffffffffffff169050919050565b600033905090565b6111348383836001611981565b505050565b60008061114584611944565b9050600073ffffffffffffffffffffffffffffffffffffffff168373ffffffffffffffffffffffffffffffffffffffff161461118757611186818486611b46565b5b600073ffffffffffffffffffffffffffffffffffffffff168173ffffffffffffffffffffffffffffffffffffffff1614611218576111c9600085600080611981565b6001600360008373ffffffffffffffffffffffffffffffffffffffff1673ffffffffffffffffffffffffffffffffffffffff168152602001908152602001600020600082825403925050819055505b600073ffffffffffffffffffffffffffffffffffffffff168573ffffffffffffffffffffffffffffffffffffffff161461129b576001600360008773ffffffffffffffffffffffffffffffffffffffff1673ffffffffffffffffffffffffffffffffffffffff168152602001908152602001600020600082825401925050819055505b846002600086815260200190815260200160002060006101000a81548173ffffffffffffffffffffffffffffffffffffffff021916908373ffffffffffffffffffffffffffffffffffffffff160217905550838573ffffffffffffffffffffffffffffffffffffffff168273ffffffffffffffffffffffffffffffffffffffff167fddf252ad1be2c89b69c2b068fc378daa952ba7f163c4a11628f55a4df523b3ef60405160405180910390a4809150509392505050565b61135b61111f565b73ffffffffffffffffffffffffffffffffffffffff16611379610ab1565b73ffffffffffffffffffffffffffffffffffffffff16146113d85761139c61111f565b6040517f118cdaa70000000000000000000000000000000000000000000000000000000081526004016113cf91906123c0565b60405180910390fd5b565b6000600760009054906101000a900473ffffffffffffffffffffffffffffffffffffffff16905081600760006101000a81548173ffffffffffffffffffffffffffffffffffffffff021916908373ffffffffffffffffffffffffffffffffffffffff1602179055508173ffffffffffffffffffffffffffffffffffffffff168173ffffffffffffffffffffffffffffffffffffffff167f8be0079c531659141344cd1fd0a4f28419497f9722a3daafe3b4186f6b6457e060405160405180910390a35050565b600073ffffffffffffffffffffffffffffffffffffffff168273ffffffffffffffffffffffffffffffffffffffff160361151157816040517f5b08ba1800000000000000000000000000000000000000000000000000000000815260040161150891906123c0565b60405180910390fd5b80600560008573ffffffffffffffffffffffffffffffffffffffff1673ffffffffffffffffffffffffffffffffffffffff16815260200190815260200160002060008473ffffffffffffffffffffffffffffffffffffffff1673ffffffffffffffffffffffffffffffffffffffff16815260200190815260200160002060006101000a81548160ff0219169083151502179055508173ffffffffffffffffffffffffffffffffffffffff168373ffffffffffffffffffffffffffffffffffffffff167f17307eab39ab6107e8899845ad3d59bd9653f200f220920489ca2b5937696c3183604051611602919061224f565b60405180910390a3505050565b60008373ffffffffffffffffffffffffffffffffffffffff163b11156117b9578273ffffffffffffffffffffffffffffffffffffffff1663150b7a02868685856040518563ffffffff1660e01b815260040161166e9493929190612c1b565b6020604051808303816000875af19250505080156116aa57506040513d601f19601f820116820180604052508101906116a79190612c7c565b60015b61172e573d80600081146116da576040519150601f19603f3d011682016040523d82523d6000602084013e6116df565b606091505b50600081510361172657836040517f64a0ae9200000000000000000000000000000000000000000000000000000000815260040161171d91906123c0565b60405180910390fd5b805160208201fd5b63150b7a0260e01b7bffffffffffffffffffffffffffffffffffffffffffffffffffffffff1916817bffffffffffffffffffffffffffffffffffffffffffffffffffffffff1916146117b757836040517f64a0ae920000000000000000000000000000000000000000000000000000000081526004016117ae91906123c0565b60405180910390fd5b505b5050505050565b606060405180602001604052806000815250905090565b60606117e28261105a565b5060006117ed6117c0565b9050600081511161180d5760405180602001604052806000815250611838565b8061181784611c0a565b604051602001611828929190612a96565b6040516020818303038152906040525b915050919050565b61185a828260405180602001604052806000815250611cd8565b5050565b8060066000848152602001908152602001600020908161187e9190612e55565b507ff8e1a15aba9398e019f0b49df1a4fde98ee17ae345cb5f6b5e2c27f5033e8ce7826040516118ae9190612456565b60405180910390a15050565b6118d583838360405180602001604052806000815250611cfc565b505050565b60007f01ffc9a7000000000000000000000000000000000000000000000000000000007bffffffffffffffffffffffffffffffffffffffffffffffffffffffff1916827bffffffffffffffffffffffffffffffffffffffffffffffffffffffff1916149050919050565b60006002600083815260200190815260200160002060009054906101000a900473ffffffffffffffffffffffffffffffffffffffff169050919050565b80806119ba5750600073ffffffffffffffffffffffffffffffffffffffff168273ffffffffffffffffffffffffffffffffffffffff1614155b15611aee5760006119ca8461105a565b9050600073ffffffffffffffffffffffffffffffffffffffff168373ffffffffffffffffffffffffffffffffffffffff1614158015611a3557508273ffffffffffffffffffffffffffffffffffffffff168173ffffffffffffffffffffffffffffffffffffffff1614155b8015611a485750611a468184610e5e565b155b15611a8a57826040517fa9fbf51f000000000000000000000000000000000000000000000000000000008152600401611a8191906123c0565b60405180910390fd5b8115611aec57838573ffffffffffffffffffffffffffffffffffffffff168273ffffffffffffffffffffffffffffffffffffffff167f8c5be1e5ebec7d5bd14f71427d1e84f3dd0314c0f7b2291e5b200ac8c7c3b92560405160405180910390a45b505b836004600085815260200190815260200160002060006101000a81548173ffffffffffffffffffffffffffffffffffffffff021916908373ffffffffffffffffffffffffffffffffffffffff16021790555050505050565b611b51838383611d21565b611c0557600073ffffffffffffffffffffffffffffffffffffffff168373ffffffffffffffffffffffffffffffffffffffff1603611bc657806040517f7e273289000000000000000000000000000000000000000000000000000000008152600401611bbd9190612456565b60405180910390fd5b81816040517f177e802f000000000000000000000000000000000000000000000000000000008152600401611bfc929190612b9d565b60405180910390fd5b505050565b606060006001611c1984611de2565b01905060008167ffffffffffffffff811115611c3857611c376125a7565b5b6040519080825280601f01601f191660200182016040528015611c6a5781602001600182028036833780820191505090505b509050600082602083010190505b600115611ccd578080600190039150507f3031323334353637383961626364656600000000000000000000000000000000600a86061a8153600a8581611cc157611cc0612f27565b5b04945060008503611c78575b819350505050919050565b611ce28383611f35565b611cf7611ced61111f565b600085858561160f565b505050565b611d0784848461202e565b611d1b611d1261111f565b8585858561160f565b50505050565b60008073ffffffffffffffffffffffffffffffffffffffff168373ffffffffffffffffffffffffffffffffffffffff1614158015611dd957508273ffffffffffffffffffffffffffffffffffffffff168473ffffffffffffffffffffffffffffffffffffffff161480611d9a5750611d998484610e5e565b5b80611dd857508273ffffffffffffffffffffffffffffffffffffffff16611dc0836110e2565b73ffffffffffffffffffffffffffffffffffffffff16145b5b90509392505050565b600080600090507a184f03e93ff9f4daa797ed6e38ed64bf6a1f0100000000000000008310611e40577a184f03e93ff9f4daa797ed6e38ed64bf6a1f0100000000000000008381611e3657611e35612f27565b5b0492506040810190505b6d04ee2d6d415b85acef81000000008310611e7d576d04ee2d6d415b85acef81000000008381611e7357611e72612f27565b5b0492506020810190505b662386f26fc100008310611eac57662386f26fc100008381611ea257611ea1612f27565b5b0492506010810190505b6305f5e1008310611ed5576305f5e1008381611ecb57611eca612f27565b5b0492506008810190505b6127108310611efa576127108381611ef057611eef612f27565b5b0492506004810190505b60648310611f1d5760648381611f1357611f12612f27565b5b0492506002810190505b600a8310611f2c576001810190505b80915050919050565b600073ffffffffffffffffffffffffffffffffffffffff168273ffffffffffffffffffffffffffffffffffffffff1603611fa75760006040517f64a0ae92000000000000000000000000000000000000000000000000000000008152600401611f9e91906123c0565b60405180910390fd5b6000611fb583836000611139565b9050600073ffffffffffffffffffffffffffffffffffffffff168173ffffffffffffffffffffffffffffffffffffffff16146120295760006040517f73c6ac6e00000000000000000000000000000000000000000000000000000000815260040161202091906123c0565b60405180910390fd5b505050565b600073ffffffffffffffffffffffffffffffffffffffff168273ffffffffffffffffffffffffffffffffffffffff16036120a05760006040517f64a0ae9200000000000000000000000000000000000000000000000000000000815260040161209791906123c0565b60405180910390fd5b60006120ae83836000611139565b9050600073ffffffffffffffffffffffffffffffffffffffff168173ffffffffffffffffffffffffffffffffffffffff160361212157816040517f7e2732890000000000000000000000000000000000000000000000000000000081526004016121189190612456565b60405180910390fd5b8373ffffffffffffffffffffffffffffffffffffffff168173ffffffffffffffffffffffffffffffffffffffff1614612195578382826040517f64283d7b00000000000000000000000000000000000000000000000000000000815260040161218c939291906128df565b60405180910390fd5b50505050565b6000604051905090565b600080fd5b600080fd5b60007fffffffff0000000000000000000000000000000000000000000000000000000082169050919050565b6121e4816121af565b81146121ef57600080fd5b50565b600081359050612201816121db565b92915050565b60006020828403121561221d5761221c6121a5565b5b600061222b848285016121f2565b91505092915050565b60008115159050919050565b61224981612234565b82525050565b60006020820190506122646000830184612240565b92915050565b600081519050919050565b600082825260208201905092915050565b60005b838110156122a4578082015181840152602081019050612289565b60008484015250505050565b6000601f19601f8301169050919050565b60006122cc8261226a565b6122d68185612275565b93506122e6818560208601612286565b6122ef816122b0565b840191505092915050565b6000602082019050818103600083015261231481846122c1565b905092915050565b6000819050919050565b61232f8161231c565b811461233a57600080fd5b50565b60008135905061234c81612326565b92915050565b600060208284031215612368576123676121a5565b5b60006123768482850161233d565b91505092915050565b600073ffffffffffffffffffffffffffffffffffffffff82169050919050565b60006123aa8261237f565b9050919050565b6123ba8161239f565b82525050565b60006020820190506123d560008301846123b1565b92915050565b6123e48161239f565b81146123ef57600080fd5b50565b600081359050612401816123db565b92915050565b6000806040838503121561241e5761241d6121a5565b5b600061242c858286016123f2565b925050602061243d8582860161233d565b9150509250929050565b6124508161231c565b82525050565b600060208201905061246b6000830184612447565b92915050565b60008060006060848603121561248a576124896121a5565b5b6000612498868287016123f2565b93505060206124a9868287016123f2565b92505060406124ba8682870161233d565b9150509250925092565b600080604083850312156124db576124da6121a5565b5b60006124e98582860161233d565b92505060206124fa8582860161233d565b9150509250929050565b60006020828403121561251a576125196121a5565b5b6000612528848285016123f2565b91505092915050565b61253a81612234565b811461254557600080fd5b50565b60008135905061255781612531565b92915050565b60008060408385031215612574576125736121a5565b5b6000612582858286016123f2565b925050602061259385828601612548565b9150509250929050565b600080fd5b600080fd5b7f4e487b7100000000000000000000000000000000000000000000000000000000600052604160045260246000fd5b6125df826122b0565b810181811067ffffffffffffffff821117156125fe576125fd6125a7565b5b80604052505050565b600061261161219b565b905061261d82826125d6565b919050565b600067ffffffffffffffff82111561263d5761263c6125a7565b5b612646826122b0565b9050602081019050919050565b82818337600083830152505050565b600061267561267084612622565b612607565b905082815260208101848484011115612691576126906125a2565b5b61269c848285612653565b509392505050565b600082601f8301126126b9576126b861259d565b5b81356126c9848260208601612662565b91505092915050565b600080600080608085870312156126ec576126eb6121a5565b5b60006126fa878288016123f2565b945050602061270b878288016123f2565b935050604061271c8782880161233d565b925050606085013567ffffffffffffffff81111561273d5761273c6121aa565b5b612749878288016126a4565b91505092959194509250565b600067ffffffffffffffff8211156127705761276f6125a7565b5b612779826122b0565b9050602081019050919050565b600061279961279484612755565b612607565b9050828152602081018484840111156127b5576127b46125a2565b5b6127c0848285612653565b509392505050565b600082601f8301126127dd576127dc61259d565b5b81356127ed848260208601612786565b91505092915050565b60006020828403121561280c5761280b6121a5565b5b600082013567ffffffffffffffff81111561282a576128296121aa565b5b612836848285016127c8565b91505092915050565b60008060408385031215612856576128556121a5565b5b6000612864858286016123f2565b9250506020612875858286016123f2565b9150509250929050565b7f4e487b7100000000000000000000000000000000000000000000000000000000600052602260045260246000fd5b600060028204905060018216806128c657607f821691505b6020821081036128d9576128d861287f565b5b50919050565b60006060820190506128f460008301866123b1565b6129016020830185612447565b61290e60408301846123b1565b949350505050565b7f4e6f74206f776e65720000000000000000000000000000000000000000000000600082015250565b600061294c600983612275565b915061295782612916565b602082019050919050565b6000602082019050818103600083015261297b8161293f565b9050919050565b7f4e6f74206c697374656400000000000000000000000000000000000000000000600082015250565b60006129b8600a83612275565b91506129c382612982565b602082019050919050565b600060208201905081810360008301526129e7816129ab565b9050919050565b7f5072696365206d757374206265203e2030000000000000000000000000000000600082015250565b6000612a24601183612275565b9150612a2f826129ee565b602082019050919050565b60006020820190508181036000830152612a5381612a17565b9050919050565b600081905092915050565b6000612a708261226a565b612a7a8185612a5a565b9350612a8a818560208601612286565b80840191505092915050565b6000612aa28285612a65565b9150612aae8284612a65565b91508190509392505050565b7f4e487b7100000000000000000000000000000000000000000000000000000000600052601160045260246000fd5b6000612af48261231c565b91507fffffffffffffffffffffffffffffffffffffffffffffffffffffffffffffffff8203612b2657612b25612aba565b5b600182019050919050565b7f57726f6e672076616c7565000000000000000000000000000000000000000000600082015250565b6000612b67600b83612275565b9150612b7282612b31565b602082019050919050565b60006020820190508181036000830152612b9681612b5a565b9050919050565b6000604082019050612bb260008301856123b1565b612bbf6020830184612447565b9392505050565b600081519050919050565b600082825260208201905092915050565b6000612bed82612bc6565b612bf78185612bd1565b9350612c07818560208601612286565b612c10816122b0565b840191505092915050565b6000608082019050612c3060008301876123b1565b612c3d60208301866123b1565b612c4a6040830185612447565b8181036060830152612c5c8184612be2565b905095945050505050565b600081519050612c76816121db565b92915050565b600060208284031215612c9257612c916121a5565b5b6000612ca084828501612c67565b91505092915050565b60008190508160005260206000209050919050565b60006020601f8301049050919050565b600082821b905092915050565b600060088302612d0b7fffffffffffffffffffffffffffffffffffffffffffffffffffffffffffffffff82612cce565b612d158683612cce565b95508019841693508086168417925050509392505050565b6000819050919050565b6000612d52612d4d612d488461231c565b612d2d565b61231c565b9050919050565b6000819050919050565b612d6c83612d37565b612d80612d7882612d59565b848454612cdb565b825550505050565b600090565b612d95612d88565b612da0818484612d63565b505050565b5b81811015612dc457612db9600082612d8d565b600181019050612da6565b5050565b601f821115612e0957612dda81612ca9565b612de384612cbe565b81016020851015612df2578190505b612e06612dfe85612cbe565b830182612da5565b50505b505050565b600082821c905092915050565b6000612e2c60001984600802612e0e565b1980831691505092915050565b6000612e458383612e1b565b9150826002028217905092915050565b612e5e8261226a565b67ffffffffffffffff811115612e7757612e766125a7565b5b612e8182546128ae565b612e8c828285612dc8565b600060209050601f831160018114612ebf5760008415612ead578287015190505b612eb78582612e39565b865550612f1f565b601f198416612ecd86612ca9565b60005b82811015612ef557848901518255600182019150602085019450602081019050612ed0565b86831015612f125784890151612f0e601f891682612e1b565b8355505b6001600288020188555050505b505050505050565b7f4e487b7100000000000000000000000000000000000000000000000000000000600052601260045260246000fdfea2646970667358221220cfdfa1fea0240f852bd6649fc3fbe4d08675f48c6d9bb900faddfe59aa5ec2d364736f6c63430008180033",
  "linkReferences": {},
  "deployedLinkReferences": {}
}